:020000020000FC
:1000000027C0A83FD30040A0C0DA12A4A6D5808D97
:1000100014AF2000E30050480A12E094072938C2C8
:100020001C439846196270927092C82AC82A29E027
:1000300029E01F111F001F0117151D1F15151F0493
:10004000071D15171D151F1F01011F151F1F151750
:10005000FF9A00270EBD0CBD07E207BD0FE006BDED
:100060000AE00DBD07E001B9109AA2E0B0E40D91DD
:100070008894B9D1033ED9F703E00BBB00270CBB32
:1000800004E80DBB62D068D0F6E0E0E0ADD093D0DC
:10009000EE23E1F35AD0C0E0D7E0E0E044E051E0E5
:1000A00070E06F2F6894FFD068F3E894EE23F9F1C5
:1000B000FAD06894E1FF0CC0ED7F733009F47FEF54
:1000C0007395F1D090F77A9577FD73E0ECD0EDCF92
:1000D000E2FF0BC0EB7F473043FD4F3021F04395EB
:1000E000E2D018F74A95DFD0E0CFE3FF0BC0E77FFF
:1000F000403043FD4830B9F34A95D5D0B0F643952A
:10010000D2D0D3CFE0FF13C0EE7F550F21F443FDD3
:1001100039F048605160C7D050F4569511F44770DB
:100120005068C1D070D0C395E8F3CA95B6CF39D125
:1001300042D05AD0DA9541F4E160D6E0C03220F0E6
:10014000D5E0C03408F0D4E0B0CFA0E4B0E000E0E7
:100150000D93A035E9F70895002714E014D034E694
:100160000BD010E010D03AE007D01CE00CD00C2FE0
:1001700018E009D016D108950027C31718F0C31B43
:100180000395FBCF0895A2E3B0E4202F220F220FA6
:10019000201BA20FE0E4F0E0E10F2D9121932D91BF
:1001A00021932D912193089504EC0DBB0DB30074A0
:1001B000E9F709B30895F8DF087F003811F4E26029
:1001C0001ED0083C19F4E1601AD019D0083A21F485
:1001D000E46015D014D013D0003C29F4E8600FD0AF
:1001E0000ED00DD00CD0089507E207BD0FE006BD7C
:1001F00002E00ABD0AB501FFFDCF01D00895FA95CE
:10020000F7FDF6E00895E894A0E4B0E0B0FD68944E
:100210000FEF9D910923A83411F0A035D1F70030DC
:1002200019F4AEF788940895A0E40EF4A8609C91A8
:10023000192F110F07FD26C006FD20C005FD1AC0AD
:1002400004FD14C003FD0EC002FD08C001FD02C084
:100250009E7F19C09C7F1370912B15C0987F1770DB
:10026000912B11C0907F1F70912B0DC0907E1F713C
:10027000912B09C0907C1F73912B05C090781F773C
:10028000912B01C0990F3EF4A77F1C9117FD91603F
:10029000110F1C93A8609D93A83448F216F4A03562
:1002A00031F608940895A6E1B0E4062F000F000F80
:1002B000A00FA70F0C9131E0832F802309F44FC0CA
:1002C000142F663049F470FD17C035FD135033FD0F
:1002D000125030FD1A950AC084E9832321F489E283
:1002E000832319F403C0139501C01A95812F142795
:1002F0001870182F09F042C0252F663049F470FF9E
:1003000029C037FD0CC036FD0DC035FD0EC022C022
:1003100080EE832351F487E0832399F41BC0220FDE
:1003200009F407D0220F09F404D0220F99F401D068
:1003300011C013FF03C01F911F9120C018602160DE
:100340000895252F663059F3269521F413FF16C022
:10035000177020681EF414D089F40FF417D0330FEF
:1003600009F0AACF142F252F2EF40AD039F417F054
:10037000789499CF0BD0F8948894089508940895B0
:10038000A0E4A10FB0E09C9192230895A0E4A12BDA
:10039000B0E09C91922B1EF02095922320959C9387
:1003A0000895AFE3B0E080E0A3959C91803420F005
:1003B00008E0A00F9C91A01B00E09F93082B0F73F7
:1003C00019F096950850E9F700E090FD0FEF9F9126
:1003D000089409D08395B7E0B823D1F7803829F77E
:1003E000A73401F7089510981AE0119812981A95F9
:1003F00029F008F4129A119A001FF7CF109A089565
:00000001FF
